8=FIX.4.4|9=96|35=A|34=1|49=845672|52=20180727-11:52:54.522|56=Swissquote|142=122.160.79.198|98=0|108=30|141=Y|10=092|
8=FIX.4.4|9=77|35=A|34=1|49=Swissquote|52=20180727-11:52:56.719|56=845672|98=0|108=30|141=Y|10=200|
8=FIX.4.4|9=78|35=0|34=2|49=845672|52=20180727-11:53:25.501|56=Swissquote|142=122.160.79.198|10=002|
8=FIX.4.4|9=59|35=0|34=2|49=Swissquote|52=20180727-11:53:27.408|56=845672|10=108|
8=FIX.4.4|9=96|35=A|34=1|49=845672|52=20180727-12:27:02.096|56=Swissquote|142=122.160.79.198|98=0|108=30|141=Y|10=094|
8=FIX.4.4|9=96|35=A|34=1|49=845672|52=20180727-12:59:54.040|56=Swissquote|142=122.160.79.198|98=0|108=30|141=Y|10=095|
8=FIX.4.4|9=96|35=A|34=1|49=845672|52=20180727-13:00:44.199|56=Swissquote|142=122.160.79.198|98=0|108=30|141=Y|10=096|
8=FIX.4.4|9=96|35=A|34=1|49=845672|52=20180727-13:02:23.901|56=Swissquote|142=122.160.79.198|98=0|108=30|141=Y|10=086|
8=FIX.4.4|9=77|35=A|34=1|49=Swissquote|52=20180727-13:02:25.956|56=845672|98=0|108=30|141=Y|10=196|
8=FIX.4.4|9=59|35=0|34=2|49=Swissquote|52=20180727-13:02:56.571|56=845672|10=107|
8=FIX.4.4|9=78|35=0|34=2|49=845672|52=20180727-13:02:54.732|56=Swissquote|142=122.160.79.198|10=006|
8=FIX.4.4|9=182|35=D|34=3|49=845672|52=20180727-13:03:10.609|56=Swissquote|142=122.160.79.198|1=845672|11=1532696590564|15=USD|21=1|22=4|38=1|40=1|54=2|55=JPM|59=0|60=20180727-13:03:10.609|100=XNYS|10=094|
8=FIX.4.4|9=181|35=8|34=3|49=Swissquote|52=20180727-13:03:15.508|56=845672|6=0|11=1532696590564|14=0|17=REJ1532696595508|22=4|37=[N/A]|39=8|54=2|55=JPM|58=Not enough securities to sell|150=8|151=0|10=155|
8=FIX.4.4|9=78|35=0|34=4|49=845672|52=20180727-13:03:40.878|56=Swissquote|142=122.160.79.198|10=015|
8=FIX.4.4|9=87|35=1|34=5|49=845672|52=20180727-13:03:58.879|56=Swissquote|142=122.160.79.198|112=TEST|10=045|
8=FIX.4.4|9=96|35=A|34=1|49=845672|52=20180727-13:04:26.885|56=Swissquote|142=122.160.79.198|98=0|108=30|141=Y|10=102|
8=FIX.4.4|9=96|35=A|34=1|49=845672|52=20180727-13:05:17.891|56=Swissquote|142=122.160.79.198|98=0|108=30|141=Y|10=100|
8=FIX.4.4|9=96|35=A|34=1|49=845672|52=20180727-13:05:52.140|56=Swissquote|142=122.160.79.198|98=0|108=30|141=Y|10=086|
8=FIX.4.4|9=96|35=A|34=1|49=845672|52=20180727-13:06:42.224|56=Swissquote|142=122.160.79.198|98=0|108=30|141=Y|10=089|
8=FIX.4.4|9=77|35=A|34=1|49=Swissquote|52=20180727-13:06:44.807|56=845672|98=0|108=30|141=Y|10=196|
8=FIX.4.4|9=189|35=D|34=2|49=845672|52=20180727-13:06:55.059|56=Swissquote|142=122.160.79.198|1=845672|11=1532696815013|15=USD|21=1|22=4|38=1|40=2|44=115|54=1|55=JPM|59=0|60=20180727-13:06:55.059|100=XNYS|10=172|
8=FIX.4.4|9=163|35=8|34=2|49=Swissquote|52=20180727-13:06:57.846|56=845672|6=0|11=1532696815013|14=0|17=NEW1532696817846|37=44396382|38=1|39=0|40=2|44=115|54=1|55=JPM|150=0|151=1|10=041|
8=FIX.4.4|9=164|35=8|34=3|49=Swissquote|52=20180727-13:06:58.846|56=845672|6=0|11=1532696815013|14=0|17=PNEW1532696818846|37=44396382|38=1|39=A|40=2|44=115|54=1|55=JPM|150=A|151=1|10=159|
8=FIX.4.4|9=78|35=0|34=3|49=845672|52=20180727-13:07:25.120|56=Swissquote|142=122.160.79.198|10=001|
8=FIX.4.4|9=59|35=0|34=4|49=Swissquote|52=20180727-13:07:29.582|56=845672|10=116|
8=FIX.4.4|9=78|35=0|34=4|49=845672|52=20180727-13:07:55.134|56=Swissquote|142=122.160.79.198|10=010|
8=FIX.4.4|9=59|35=0|34=5|49=Swissquote|52=20180727-13:07:59.583|56=845672|10=121|
8=FIX.4.4|9=78|35=0|34=5|49=845672|52=20180727-13:08:25.134|56=Swissquote|142=122.160.79.198|10=009|
8=FIX.4.4|9=59|35=0|34=6|49=Swissquote|52=20180727-13:08:29.584|56=845672|10=121|
8=FIX.4.4|9=78|35=0|34=6|49=845672|52=20180727-13:08:55.135|56=Swissquote|142=122.160.79.198|10=014|
8=FIX.4.4|9=59|35=0|34=7|49=Swissquote|52=20180727-13:08:59.585|56=845672|10=126|
8=FIX.4.4|9=78|35=0|34=7|49=845672|52=20180727-13:09:26.127|56=Swissquote|142=122.160.79.198|10=015|
8=FIX.4.4|9=59|35=0|34=8|49=Swissquote|52=20180727-13:09:29.586|56=845672|10=126|
8=FIX.4.4|9=78|35=0|34=8|49=845672|52=20180727-13:09:56.136|56=Swissquote|142=122.160.79.198|10=019|
8=FIX.4.4|9=59|35=0|34=9|49=Swissquote|52=20180727-13:09:59.587|56=845672|10=131|
8=FIX.4.4|9=78|35=0|34=9|49=845672|52=20180727-13:10:27.132|56=Swissquote|142=122.160.79.198|10=006|
8=FIX.4.4|9=60|35=0|34=10|49=Swissquote|52=20180727-13:10:29.589|56=845672|10=154|
8=FIX.4.4|9=79|35=0|34=10|49=845672|52=20180727-13:10:58.128|56=Swissquote|142=122.160.79.198|10=056|
8=FIX.4.4|9=96|35=A|34=1|49=845672|52=20180727-13:11:00.135|56=Swissquote|142=122.160.79.198|98=0|108=30|141=Y|10=080|
8=FIX.4.4|9=77|35=A|34=1|49=Swissquote|52=20180727-13:11:02.185|56=845672|98=0|108=30|141=Y|10=185|
8=FIX.4.4|9=59|35=0|34=2|49=Swissquote|52=20180727-13:11:32.591|56=845672|10=103|
8=FIX.4.4|9=78|35=0|34=2|49=845672|52=20180727-13:11:30.746|56=Swissquote|142=122.160.79.198|10=005|
8=FIX.4.4|9=59|35=0|34=3|49=Swissquote|52=20180727-13:12:02.592|56=845672|10=103|
8=FIX.4.4|9=78|35=0|34=3|49=845672|52=20180727-13:12:00.748|56=Swissquote|142=122.160.79.198|10=006|
8=FIX.4.4|9=59|35=0|34=4|49=Swissquote|52=20180727-13:12:32.594|56=845672|10=109|
8=FIX.4.4|9=78|35=0|34=4|49=845672|52=20180727-13:12:31.136|56=Swissquote|142=122.160.79.198|10=002|
8=FIX.4.4|9=59|35=0|34=5|49=Swissquote|52=20180727-13:13:02.595|56=845672|10=109|
8=FIX.4.4|9=78|35=0|34=5|49=845672|52=20180727-13:13:01.136|56=Swissquote|142=122.160.79.198|10=001|
8=FIX.4.4|9=59|35=0|34=6|49=Swissquote|52=20180727-13:13:32.596|56=845672|10=114|
8=FIX.4.4|9=78|35=0|34=6|49=845672|52=20180727-13:13:31.136|56=Swissquote|142=122.160.79.198|10=005|
8=FIX.4.4|9=59|35=0|34=7|49=Swissquote|52=20180727-13:14:02.597|56=845672|10=114|
8=FIX.4.4|9=78|35=0|34=7|49=845672|52=20180727-13:14:02.134|56=Swissquote|142=122.160.79.198|10=003|
8=FIX.4.4|9=59|35=0|34=8|49=Swissquote|52=20180727-13:14:32.598|56=845672|10=119|
8=FIX.4.4|9=78|35=0|34=8|49=845672|52=20180727-13:14:32.134|56=Swissquote|142=122.160.79.198|10=007|
8=FIX.4.4|9=59|35=0|34=9|49=Swissquote|52=20180727-13:15:02.599|56=845672|10=119|
8=FIX.4.4|9=78|35=0|34=9|49=845672|52=20180727-13:15:02.134|56=Swissquote|142=122.160.79.198|10=006|
8=FIX.4.4|9=60|35=0|34=10|49=Swissquote|52=20180727-13:15:32.601|56=845672|10=138|
8=FIX.4.4|9=79|35=0|34=10|49=845672|52=20180727-13:15:33.132|56=Swissquote|142=122.160.79.198|10=049|
8=FIX.4.4|9=60|35=0|34=11|49=Swissquote|52=20180727-13:16:02.602|56=845672|10=138|
8=FIX.4.4|9=79|35=0|34=11|49=845672|52=20180727-13:16:03.132|56=Swissquote|142=122.160.79.198|10=048|
8=FIX.4.4|9=79|35=0|34=12|49=845672|52=20180727-13:16:33.147|56=Swissquote|142=122.160.79.198|10=058|
8=FIX.4.4|9=96|35=A|34=1|49=845672|52=20180727-13:16:35.145|56=Swissquote|142=122.160.79.198|98=0|108=30|141=Y|10=094|
8=FIX.4.4|9=77|35=A|34=1|49=Swissquote|52=20180727-13:16:37.290|56=845672|98=0|108=30|141=Y|10=195|
8=FIX.4.4|9=59|35=0|34=2|49=Swissquote|52=20180727-13:17:07.604|56=845672|10=106|
8=FIX.4.4|9=78|35=0|34=2|49=845672|52=20180727-13:17:05.754|56=Swissquote|142=122.160.79.198|10=012|
8=FIX.4.4|9=59|35=0|34=3|49=Swissquote|52=20180727-13:17:37.606|56=845672|10=112|
8=FIX.4.4|9=78|35=0|34=3|49=845672|52=20180727-13:17:35.772|56=Swissquote|142=122.160.79.198|10=016|
8=FIX.4.4|9=59|35=0|34=4|49=Swissquote|52=20180727-13:18:07.607|56=845672|10=112|
8=FIX.4.4|9=78|35=0|34=4|49=845672|52=20180727-13:18:06.144|56=Swissquote|142=122.160.79.198|10=009|
8=FIX.4.4|9=59|35=0|34=5|49=Swissquote|52=20180727-13:18:37.608|56=845672|10=117|
8=FIX.4.4|9=78|35=0|34=5|49=845672|52=20180727-13:18:36.144|56=Swissquote|142=122.160.79.198|10=013|
8=FIX.4.4|9=59|35=0|34=6|49=Swissquote|52=20180727-13:19:07.609|56=845672|10=117|
8=FIX.4.4|9=78|35=0|34=6|49=845672|52=20180727-13:19:07.148|56=Swissquote|142=122.160.79.198|10=017|
8=FIX.4.4|9=59|35=0|34=7|49=Swissquote|52=20180727-13:19:37.610|56=845672|10=113|
8=FIX.4.4|9=78|35=0|34=7|49=845672|52=20180727-13:19:38.146|56=Swissquote|142=122.160.79.198|10=020|
8=FIX.4.4|9=59|35=0|34=8|49=Swissquote|52=20180727-13:20:07.611|56=845672|10=104|
8=FIX.4.4|9=78|35=0|34=8|49=845672|52=20180727-13:20:09.139|56=Swissquote|142=122.160.79.198|10=013|
8=FIX.4.4|9=59|35=0|34=9|49=Swissquote|52=20180727-13:20:37.613|56=845672|10=110|
8=FIX.4.4|9=78|35=0|34=9|49=845672|52=20180727-13:20:39.141|56=Swissquote|142=122.160.79.198|10=010|
8=FIX.4.4|9=60|35=0|34=10|49=Swissquote|52=20180727-13:21:07.614|56=845672|10=141|
8=FIX.4.4|9=79|35=0|34=10|49=845672|52=20180727-13:21:10.139|56=Swissquote|142=122.160.79.198|10=048|
8=FIX.4.4|9=79|35=0|34=11|49=845672|52=20180727-13:21:40.152|56=Swissquote|142=122.160.79.198|10=047|
8=FIX.4.4|9=96|35=A|34=1|49=845672|52=20180727-13:21:42.150|56=Swissquote|142=122.160.79.198|98=0|108=30|141=Y|10=084|
8=FIX.4.4|9=77|35=A|34=1|49=Swissquote|52=20180727-13:21:44.654|56=845672|98=0|108=30|141=Y|10=193|
8=FIX.4.4|9=78|35=0|34=2|49=845672|52=20180727-13:22:12.154|56=Swissquote|142=122.160.79.198|10=000|
8=FIX.4.4|9=59|35=0|34=2|49=Swissquote|52=20180727-13:22:15.617|56=845672|10=105|
8=FIX.4.4|9=78|35=0|34=3|49=845672|52=20180727-13:22:43.145|56=Swissquote|142=122.160.79.198|10=005|
8=FIX.4.4|9=59|35=0|34=3|49=Swissquote|52=20180727-13:22:45.618|56=845672|10=110|
8=FIX.4.4|9=78|35=0|34=4|49=845672|52=20180727-13:23:13.156|56=Swissquote|142=122.160.79.198|10=006|
8=FIX.4.4|9=59|35=0|34=4|49=Swissquote|52=20180727-13:23:15.619|56=845672|10=110|
8=FIX.4.4|9=59|35=0|34=5|49=Swissquote|52=20180727-13:23:45.620|56=845672|10=106|
8=FIX.4.4|9=78|35=0|34=5|49=845672|52=20180727-13:23:43.771|56=Swissquote|142=122.160.79.198|10=013|
8=FIX.4.4|9=59|35=0|34=6|49=Swissquote|52=20180727-13:24:15.621|56=845672|10=106|
8=FIX.4.4|9=78|35=0|34=6|49=845672|52=20180727-13:24:13.774|56=Swissquote|142=122.160.79.198|10=015|
8=FIX.4.4|9=59|35=0|34=7|49=Swissquote|52=20180727-13:24:45.622|56=845672|10=111|
8=FIX.4.4|9=78|35=0|34=7|49=845672|52=20180727-13:24:44.154|56=Swissquote|142=122.160.79.198|10=012|
8=FIX.4.4|9=59|35=0|34=8|49=Swissquote|52=20180727-13:25:15.624|56=845672|10=112|
8=FIX.4.4|9=78|35=0|34=8|49=845672|52=20180727-13:25:15.151|56=Swissquote|142=122.160.79.198|10=009|
8=FIX.4.4|9=59|35=0|34=9|49=Swissquote|52=20180727-13:25:45.625|56=845672|10=117|
8=FIX.4.4|9=78|35=0|34=9|49=845672|52=20180727-13:25:46.156|56=Swissquote|142=122.160.79.198|10=019|
8=FIX.4.4|9=60|35=0|34=10|49=Swissquote|52=20180727-13:26:15.626|56=845672|10=148|
8=FIX.4.4|9=79|35=0|34=10|49=845672|52=20180727-13:26:16.156|56=Swissquote|142=122.160.79.198|10=058|
8=FIX.4.4|9=60|35=0|34=11|49=Swissquote|52=20180727-13:26:45.627|56=845672|10=153|
8=FIX.4.4|9=79|35=0|34=11|49=845672|52=20180727-13:26:47.154|56=Swissquote|142=122.160.79.198|10=061|
8=FIX.4.4|9=60|35=0|34=12|49=Swissquote|52=20180727-13:27:15.628|56=845672|10=153|
8=FIX.4.4|9=79|35=0|34=12|49=845672|52=20180727-13:27:17.154|56=Swissquote|142=122.160.79.198|10=060|
8=FIX.4.4|9=79|35=0|34=13|49=845672|52=20180727-13:27:47.155|56=Swissquote|142=122.160.79.198|10=065|
8=FIX.4.4|9=96|35=A|34=1|49=845672|52=20180727-13:27:48.153|56=Swissquote|142=122.160.79.198|98=0|108=30|141=Y|10=099|
8=FIX.4.4|9=77|35=A|34=1|49=Swissquote|52=20180727-13:27:50.761|56=845672|98=0|108=30|141=Y|10=195|
8=FIX.4.4|9=78|35=0|34=2|49=845672|52=20180727-13:28:18.153|56=Swissquote|142=122.160.79.198|10=011|
8=FIX.4.4|9=59|35=0|34=2|49=Swissquote|52=20180727-13:28:21.631|56=845672|10=104|
8=FIX.4.4|9=78|35=0|34=3|49=845672|52=20180727-13:28:48.153|56=Swissquote|142=122.160.79.198|10=015|
8=FIX.4.4|9=59|35=0|34=3|49=Swissquote|52=20180727-13:28:51.632|56=845672|10=109|
8=FIX.4.4|9=78|35=0|34=4|49=845672|52=20180727-13:29:18.166|56=Swissquote|142=122.160.79.198|10=018|
8=FIX.4.4|9=59|35=0|34=4|49=Swissquote|52=20180727-13:29:21.633|56=845672|10=109|
8=FIX.4.4|9=189|35=D|34=5|49=845672|52=20180727-13:29:30.219|56=Swissquote|142=122.160.79.198|1=845672|11=1532698170221|15=USD|21=1|22=4|38=2|40=2|44=115|54=1|55=JPM|59=0|60=20180727-13:29:30.219|100=XNYS|10=165|
8=FIX.4.4|9=189|35=D|34=6|49=845672|52=20180727-13:29:30.219|56=Swissquote|142=122.160.79.198|1=845672|11=1532698170222|15=USD|21=1|22=4|38=5|40=2|44=150|54=1|55=IBM|59=0|60=20180727-13:29:30.219|100=XNYS|10=154|
8=FIX.4.4|9=188|35=D|34=7|49=845672|52=20180727-13:29:30.219|56=Swissquote|142=122.160.79.198|1=845672|11=1532698170223|15=USD|21=1|22=4|38=7|40=2|44=32|54=1|55=LAC|59=0|60=20180727-13:29:30.219|100=XNYS|10=100|
8=FIX.4.4|9=109|35=3|34=5|49=Swissquote|52=20180727-13:29:32.813|56=845672|45=6|58=Too many messages received in last second|10=116|
8=FIX.4.4|9=109|35=3|34=6|49=Swissquote|52=20180727-13:29:32.816|56=845672|45=7|58=Too many messages received in last second|10=121|
8=FIX.4.4|9=163|35=8|34=7|49=Swissquote|52=20180727-13:29:32.900|56=845672|6=0|11=1532698170221|14=0|17=NEW1532698172900|37=44396384|38=2|39=0|40=2|44=115|54=1|55=JPM|150=0|151=2|10=023|
8=FIX.4.4|9=164|35=8|34=8|49=Swissquote|52=20180727-13:29:33.225|56=845672|6=0|11=1532698170221|14=0|17=PNEW1532698173225|37=44396384|38=2|39=A|40=2|44=115|54=1|55=JPM|150=A|151=2|10=141|
8=FIX.4.4|9=78|35=0|34=8|49=845672|52=20180727-13:30:01.154|56=Swissquote|142=122.160.79.198|10=003|
8=FIX.4.4|9=59|35=0|34=9|49=Swissquote|52=20180727-13:30:03.290|56=845672|10=105|
8=FIX.4.4|9=60|35=0|34=10|49=Swissquote|52=20180727-13:30:33.636|56=845672|10=144|
8=FIX.4.4|9=78|35=0|34=9|49=845672|52=20180727-13:30:31.777|56=Swissquote|142=122.160.79.198|10=018|
8=FIX.4.4|9=60|35=0|34=11|49=Swissquote|52=20180727-13:31:03.637|56=845672|10=144|
8=FIX.4.4|9=79|35=0|34=10|49=845672|52=20180727-13:31:01.793|56=Swissquote|142=122.160.79.198|10=055|
8=FIX.4.4|9=60|35=0|34=12|49=Swissquote|52=20180727-13:31:33.638|56=845672|10=149|
8=FIX.4.4|9=79|35=0|34=11|49=845672|52=20180727-13:31:31.808|56=Swissquote|142=122.160.79.198|10=056|
8=FIX.4.4|9=96|35=A|34=1|49=845672|52=20180727-13:35:25.036|56=Swissquote|142=122.160.79.198|98=0|108=30|141=Y|10=093|
8=FIX.4.4|9=77|35=A|34=1|49=Swissquote|52=20180727-13:35:27.102|56=845672|98=0|108=30|141=Y|10=187|
8=FIX.4.4|9=189|35=D|34=2|49=845672|52=20180727-13:35:40.441|56=Swissquote|142=122.160.79.198|1=845672|11=1532698540410|15=USD|21=1|22=4|38=2|40=2|44=115|54=1|55=JPM|59=0|60=20180727-13:35:40.441|100=XNYS|10=153|
8=FIX.4.4|9=163|35=8|34=2|49=Swissquote|52=20180727-13:35:43.017|56=845672|6=0|11=1532698540410|14=0|17=NEW1532698543017|37=44396385|38=2|39=0|40=2|44=115|54=1|55=JPM|150=0|151=2|10=019|
8=FIX.4.4|9=164|35=8|34=3|49=Swissquote|52=20180727-13:35:43.342|56=845672|6=0|11=1532698540410|14=0|17=PNEW1532698543342|37=44396385|38=2|39=A|40=2|44=115|54=1|55=JPM|150=A|151=2|10=137|
8=FIX.4.4|9=189|35=D|34=3|49=845672|52=20180727-13:36:10.445|56=Swissquote|142=122.160.79.198|1=845672|11=1532698570447|15=USD|21=1|22=4|38=5|40=2|44=150|54=1|55=IBM|59=0|60=20180727-13:36:10.445|100=XNYS|10=158|
8=FIX.4.4|9=163|35=8|34=4|49=Swissquote|52=20180727-13:36:12.908|56=845672|6=0|11=1532698570447|14=0|17=NEW1532698572908|37=44396386|38=5|39=0|40=2|44=150|54=1|55=IBM|150=0|151=5|10=042|
8=FIX.4.4|9=159|35=8|34=5|49=Swissquote|52=20180727-13:36:13.328|56=845672|6=0|11=1532698570447|14=1|17=FILL1532698573328|31=150|32=1|37=44396386|39=1|54=1|55=IBM|150=F|151=4|10=156|
8=FIX.4.4|9=164|35=8|34=6|49=Swissquote|52=20180727-13:36:13.528|56=845672|6=0|11=1532698570447|14=0|17=PNEW1532698573528|37=44396386|38=5|39=A|40=2|44=150|54=1|55=IBM|150=A|151=5|10=157|
8=FIX.4.4|9=159|35=8|34=7|49=Swissquote|52=20180727-13:36:13.875|56=845672|6=0|11=1532698570447|14=2|17=FILL1532698573875|31=150|32=1|37=44396386|39=1|54=1|55=IBM|150=F|151=3|10=172|
8=FIX.4.4|9=159|35=8|34=8|49=Swissquote|52=20180727-13:36:14.593|56=845672|6=0|11=1532698570447|14=3|17=FILL1532698574593|31=150|32=1|37=44396386|39=1|54=1|55=IBM|150=F|151=2|10=169|
8=FIX.4.4|9=159|35=8|34=9|49=Swissquote|52=20180727-13:36:15.502|56=845672|6=0|11=1532698570447|14=5|17=FILL1532698575502|31=150|32=2|37=44396386|39=2|54=1|55=IBM|150=F|151=0|10=154|
8=FIX.4.4|9=188|35=D|34=4|49=845672|52=20180727-13:36:40.460|56=Swissquote|142=122.160.79.198|1=845672|11=1532698600463|15=USD|21=1|22=4|38=7|40=2|44=32|54=1|55=LAC|59=0|60=20180727-13:36:40.460|100=XNYS|10=095|
8=FIX.4.4|9=163|35=8|34=10|49=Swissquote|52=20180727-13:36:42.810|56=845672|6=0|11=1532698600463|14=0|17=NEW1532698602809|37=44396387|38=7|39=0|40=2|44=32|54=1|55=LAC|150=0|151=7|10=016|
8=FIX.4.4|9=164|35=8|34=11|49=Swissquote|52=20180727-13:36:43.359|56=845672|6=0|11=1532698600463|14=0|17=PNEW1532698603359|37=44396387|38=7|39=A|40=2|44=32|54=1|55=LAC|150=A|151=7|10=142|
8=FIX.4.4|9=78|35=0|34=5|49=845672|52=20180727-13:37:11.019|56=Swissquote|142=122.160.79.198|10=008|
8=FIX.4.4|9=60|35=0|34=12|49=Swissquote|52=20180727-13:37:13.651|56=845672|10=148|
8=FIX.4.4|9=78|35=0|34=6|49=845672|52=20180727-13:37:41.025|56=Swissquote|142=122.160.79.198|10=009|
8=FIX.4.4|9=60|35=0|34=13|49=Swissquote|52=20180727-13:37:43.652|56=845672|10=153|
8=FIX.4.4|9=60|35=0|34=14|49=Swissquote|52=20180727-13:38:13.654|56=845672|10=154|
8=FIX.4.4|9=78|35=0|34=7|49=845672|52=20180727-13:38:11.800|56=Swissquote|142=122.160.79.198|10=009|
8=FIX.4.4|9=60|35=0|34=15|49=Swissquote|52=20180727-13:38:43.655|56=845672|10=159|
8=FIX.4.4|9=78|35=0|34=8|49=845672|52=20180727-13:38:41.800|56=Swissquote|142=122.160.79.198|10=013|
8=FIX.4.4|9=78|35=0|34=9|49=845672|52=20180727-13:39:12.032|56=Swissquote|142=122.160.79.198|10=010|
8=FIX.4.4|9=96|35=A|34=1|49=845672|52=20180727-13:39:14.030|56=Swissquote|142=122.160.79.198|98=0|108=30|141=Y|10=089|
8=FIX.4.4|9=77|35=A|34=1|49=Swissquote|52=20180727-13:39:16.442|56=845672|98=0|108=30|141=Y|10=196|
8=FIX.4.4|9=59|35=0|34=2|49=Swissquote|52=20180727-13:39:46.657|56=845672|10=121|
8=FIX.4.4|9=78|35=0|34=2|49=845672|52=20180727-13:39:44.803|56=Swissquote|142=122.160.79.198|10=014|
8=FIX.4.4|9=59|35=0|34=3|49=Swissquote|52=20180727-13:40:16.659|56=845672|10=113|
8=FIX.4.4|9=78|35=0|34=3|49=845672|52=20180727-13:40:14.806|56=Swissquote|142=122.160.79.198|10=007|
8=FIX.4.4|9=59|35=0|34=4|49=Swissquote|52=20180727-13:40:46.660|56=845672|10=109|
8=FIX.4.4|9=78|35=0|34=4|49=845672|52=20180727-13:40:45.031|56=Swissquote|142=122.160.79.198|10=002|
8=FIX.4.4|9=59|35=0|34=5|49=Swissquote|52=20180727-13:41:16.661|56=845672|10=109|
8=FIX.4.4|9=78|35=0|34=5|49=845672|52=20180727-13:41:16.034|56=Swissquote|142=122.160.79.198|10=005|
8=FIX.4.4|9=78|35=0|34=6|49=845672|52=20180727-13:41:46.035|56=Swissquote|142=122.160.79.198|10=010|
8=FIX.4.4|9=96|35=A|34=1|49=845672|52=20180727-13:41:47.035|56=Swissquote|142=122.160.79.198|98=0|108=30|141=Y|10=093|
8=FIX.4.4|9=77|35=A|34=1|49=Swissquote|52=20180727-13:41:49.466|56=845672|98=0|108=30|141=Y|10=201|
8=FIX.4.4|9=59|35=0|34=2|49=Swissquote|52=20180727-13:42:19.663|56=845672|10=112|
8=FIX.4.4|9=78|35=0|34=2|49=845672|52=20180727-13:42:17.800|56=Swissquote|142=122.160.79.198|10=005|
8=FIX.4.4|9=59|35=0|34=3|49=Swissquote|52=20180727-13:42:49.664|56=845672|10=117|
8=FIX.4.4|9=78|35=0|34=3|49=845672|52=20180727-13:42:47.813|56=Swissquote|142=122.160.79.198|10=013|
8=FIX.4.4|9=59|35=0|34=4|49=Swissquote|52=20180727-13:43:19.666|56=845672|10=118|
8=FIX.4.4|9=78|35=0|34=4|49=845672|52=20180727-13:43:17.813|56=Swissquote|142=122.160.79.198|10=012|
8=FIX.4.4|9=59|35=0|34=5|49=Swissquote|52=20180727-13:43:49.667|56=845672|10=123|
8=FIX.4.4|9=78|35=0|34=5|49=845672|52=20180727-13:43:48.030|56=Swissquote|142=122.160.79.198|10=008|
8=FIX.4.4|9=96|35=A|34=1|49=845672|52=20180811-05:23:31.244|56=Swissquote|142=122.160.79.198|98=0|108=30|141=Y|10=083|
8=FIX.4.4|9=96|35=A|34=1|49=845672|52=20180811-05:24:21.211|56=Swissquote|142=122.160.79.198|98=0|108=30|141=Y|10=077|
8=FIX.4.4|9=96|35=A|34=1|49=845672|52=20180811-05:25:12.225|56=Swissquote|142=122.160.79.198|98=0|108=30|141=Y|10=083|
8=FIX.4.4|9=77|35=A|34=1|49=Swissquote|52=20180811-05:25:14.744|56=845672|98=0|108=30|141=Y|10=189|
8=FIX.4.4|9=78|35=0|34=2|49=845672|52=20180811-05:25:43.222|56=Swissquote|142=122.160.79.198|10=254|
8=FIX.4.4|9=59|35=0|34=2|49=Swissquote|52=20180811-05:25:45.585|56=845672|10=110|
8=FIX.4.4|9=59|35=0|34=3|49=Swissquote|52=20180811-05:26:15.586|56=845672|10=110|
8=FIX.4.4|9=78|35=0|34=3|49=845672|52=20180811-05:26:13.267|56=Swissquote|142=122.160.79.198|10=006|
8=FIX.4.4|9=59|35=0|34=4|49=Swissquote|52=20180811-05:26:45.587|56=845672|10=115|
8=FIX.4.4|9=78|35=0|34=4|49=845672|52=20180811-05:26:43.283|56=Swissquote|142=122.160.79.198|10=008|
8=FIX.4.4|9=59|35=0|34=5|49=Swissquote|52=20180811-05:27:15.588|56=845672|10=115|
8=FIX.4.4|9=78|35=0|34=5|49=845672|52=20180811-05:27:14.218|56=Swissquote|142=122.160.79.198|10=006|
8=FIX.4.4|9=59|35=0|34=6|49=Swissquote|52=20180811-05:27:45.589|56=845672|10=120|
8=FIX.4.4|9=78|35=0|34=6|49=845672|52=20180811-05:27:44.218|56=Swissquote|142=122.160.79.198|10=010|
8=FIX.4.4|9=59|35=0|34=7|49=Swissquote|52=20180811-05:28:15.591|56=845672|10=112|
8=FIX.4.4|9=78|35=0|34=7|49=845672|52=20180811-05:28:15.230|56=Swissquote|142=122.160.79.198|10=004|
8=FIX.4.4|9=59|35=0|34=8|49=Swissquote|52=20180811-05:28:45.591|56=845672|10=116|
8=FIX.4.4|9=78|35=0|34=8|49=845672|52=20180811-05:28:46.228|56=Swissquote|142=122.160.79.198|10=016|
8=FIX.4.4|9=59|35=0|34=9|49=Swissquote|52=20180811-05:29:15.592|56=845672|10=116|
8=FIX.4.4|9=78|35=0|34=9|49=845672|52=20180811-05:29:17.218|56=Swissquote|142=122.160.79.198|10=015|
8=FIX.4.4|9=60|35=0|34=10|49=Swissquote|52=20180811-05:29:45.593|56=845672|10=152|
8=FIX.4.4|9=79|35=0|34=10|49=845672|52=20180811-05:29:47.218|56=Swissquote|142=122.160.79.198|10=059|
8=FIX.4.4|9=60|35=0|34=11|49=Swissquote|52=20180811-05:30:15.595|56=845672|10=144|
8=FIX.4.4|9=79|35=0|34=11|49=845672|52=20180811-05:30:17.219|56=Swissquote|142=122.160.79.198|10=050|
8=FIX.4.4|9=60|35=0|34=12|49=Swissquote|52=20180811-05:30:45.596|56=845672|10=149|
8=FIX.4.4|9=79|35=0|34=12|49=845672|52=20180811-05:30:47.220|56=Swissquote|142=122.160.79.198|10=046|
8=FIX.4.4|9=60|35=0|34=13|49=Swissquote|52=20180811-05:31:15.597|56=845672|10=149|
8=FIX.4.4|9=79|35=0|34=13|49=845672|52=20180811-05:31:17.220|56=Swissquote|142=122.160.79.198|10=045|
8=FIX.4.4|9=60|35=0|34=14|49=Swissquote|52=20180811-05:31:45.598|56=845672|10=154|
8=FIX.4.4|9=79|35=0|34=14|49=845672|52=20180811-05:31:47.221|56=Swissquote|142=122.160.79.198|10=050|
8=FIX.4.4|9=60|35=0|34=15|49=Swissquote|52=20180811-05:32:15.599|56=845672|10=154|
8=FIX.4.4|9=79|35=0|34=15|49=845672|52=20180811-05:32:17.222|56=Swissquote|142=122.160.79.198|10=050|
8=FIX.4.4|9=60|35=0|34=16|49=Swissquote|52=20180811-05:32:45.600|56=845672|10=141|
8=FIX.4.4|9=79|35=0|34=16|49=845672|52=20180811-05:32:47.223|56=Swissquote|142=122.160.79.198|10=055|
8=FIX.4.4|9=60|35=0|34=17|49=Swissquote|52=20180811-05:33:15.602|56=845672|10=142|
8=FIX.4.4|9=79|35=0|34=17|49=845672|52=20180811-05:33:17.223|56=Swissquote|142=122.160.79.198|10=054|
8=FIX.4.4|9=60|35=0|34=18|49=Swissquote|52=20180811-05:33:45.603|56=845672|10=147|
8=FIX.4.4|9=79|35=0|34=18|49=845672|52=20180811-05:33:47.224|56=Swissquote|142=122.160.79.198|10=059|
8=FIX.4.4|9=60|35=0|34=19|49=Swissquote|52=20180811-05:34:15.604|56=845672|10=147|
8=FIX.4.4|9=79|35=0|34=19|49=845672|52=20180811-05:34:17.224|56=Swissquote|142=122.160.79.198|10=058|
8=FIX.4.4|9=60|35=0|34=20|49=Swissquote|52=20180811-05:34:45.605|56=845672|10=143|
8=FIX.4.4|9=79|35=0|34=20|49=845672|52=20180811-05:34:47.224|56=Swissquote|142=122.160.79.198|10=053|
8=FIX.4.4|9=60|35=0|34=21|49=Swissquote|52=20180811-05:35:15.606|56=845672|10=143|
8=FIX.4.4|9=79|35=0|34=21|49=845672|52=20180811-05:35:17.225|56=Swissquote|142=122.160.79.198|10=053|
8=FIX.4.4|9=60|35=0|34=22|49=Swissquote|52=20180811-05:35:45.608|56=845672|10=149|
8=FIX.4.4|9=79|35=0|34=22|49=845672|52=20180811-05:35:47.226|56=Swissquote|142=122.160.79.198|10=058|
8=FIX.4.4|9=60|35=0|34=23|49=Swissquote|52=20180811-05:36:15.609|56=845672|10=149|
8=FIX.4.4|9=79|35=0|34=23|49=845672|52=20180811-05:36:17.228|56=Swissquote|142=122.160.79.198|10=059|
8=FIX.4.4|9=96|35=A|34=1|49=845672|52=20180811-05:54:03.075|56=Swissquote|142=122.160.79.198|98=0|108=30|141=Y|10=088|
8=FIX.4.4|9=96|35=A|34=1|49=845672|52=20180811-05:54:52.766|56=Swissquote|142=122.160.79.198|98=0|108=30|141=Y|10=099|
8=FIX.4.4|9=77|35=A|34=1|49=Swissquote|52=20180811-05:54:55.278|56=845672|98=0|108=30|141=Y|10=198|
8=FIX.4.4|9=59|35=0|34=2|49=Swissquote|52=20180811-05:55:25.655|56=845672|10=109|
8=FIX.4.4|9=78|35=0|34=2|49=845672|52=20180811-05:55:23.341|56=Swissquote|142=122.160.79.198|10=001|
8=FIX.4.4|9=59|35=0|34=3|49=Swissquote|52=20180811-05:55:55.656|56=845672|10=114|
8=FIX.4.4|9=78|35=0|34=3|49=845672|52=20180811-05:55:53.341|56=Swissquote|142=122.160.79.198|10=005|
8=FIX.4.4|9=59|35=0|34=4|49=Swissquote|52=20180811-05:56:25.657|56=845672|10=114|
8=FIX.4.4|9=78|35=0|34=4|49=845672|52=20180811-05:56:23.343|56=Swissquote|142=122.160.79.198|10=006|
8=FIX.4.4|9=59|35=0|34=5|49=Swissquote|52=20180811-05:56:55.658|56=845672|10=119|
8=FIX.4.4|9=78|35=0|34=5|49=845672|52=20180811-05:56:53.765|56=Swissquote|142=122.160.79.198|10=018|
8=FIX.4.4|9=96|35=A|34=1|49=845672|52=20180811-05:57:21.490|56=Swissquote|142=122.160.79.198|98=0|108=30|141=Y|10=092|
8=FIX.4.4|9=96|35=A|34=1|49=845672|52=20180811-05:58:29.619|56=Swissquote|142=122.160.79.198|98=0|108=30|141=Y|10=104|
8=FIX.4.4|9=77|35=A|34=1|49=Swissquote|52=20180811-05:58:32.217|56=845672|98=0|108=30|141=Y|10=190|
8=FIX.4.4|9=59|35=0|34=2|49=Swissquote|52=20180811-05:59:02.663|56=845672|10=107|
8=FIX.4.4|9=78|35=0|34=2|49=845672|52=20180811-05:59:00.350|56=Swissquote|142=122.160.79.198|10=000|
8=FIX.4.4|9=59|35=0|34=3|49=Swissquote|52=20180811-05:59:32.664|56=845672|10=112|
8=FIX.4.4|9=78|35=0|34=3|49=845672|52=20180811-05:59:30.586|56=Swissquote|142=122.160.79.198|10=015|
8=FIX.4.4|9=59|35=0|34=4|49=Swissquote|52=20180811-06:00:02.666|56=845672|10=099|
8=FIX.4.4|9=78|35=0|34=4|49=845672|52=20180811-06:00:00.587|56=Swissquote|142=122.160.79.198|10=001|
8=FIX.4.4|9=59|35=0|34=5|49=Swissquote|52=20180811-06:00:32.667|56=845672|10=104|
8=FIX.4.4|9=78|35=0|34=5|49=845672|52=20180811-06:00:30.588|56=Swissquote|142=122.160.79.198|10=006|
8=FIX.4.4|9=59|35=0|34=6|49=Swissquote|52=20180811-06:01:02.668|56=845672|10=104|
8=FIX.4.4|9=78|35=0|34=6|49=845672|52=20180811-06:01:00.588|56=Swissquote|142=122.160.79.198|10=005|
8=FIX.4.4|9=59|35=0|34=7|49=Swissquote|52=20180811-06:01:32.669|56=845672|10=109|
8=FIX.4.4|9=78|35=0|34=7|49=845672|52=20180811-06:01:30.589|56=Swissquote|142=122.160.79.198|10=010|
8=FIX.4.4|9=59|35=0|34=8|49=Swissquote|52=20180811-06:02:02.670|56=845672|10=100|
8=FIX.4.4|9=78|35=0|34=8|49=845672|52=20180811-06:02:00.590|56=Swissquote|142=122.160.79.198|10=001|
8=FIX.4.4|9=59|35=0|34=9|49=Swissquote|52=20180811-06:02:32.672|56=845672|10=106|
8=FIX.4.4|9=78|35=0|34=9|49=845672|52=20180811-06:02:30.590|56=Swissquote|142=122.160.79.198|10=005|
8=FIX.4.4|9=60|35=0|34=10|49=Swissquote|52=20180811-06:03:02.672|56=845672|10=136|
8=FIX.4.4|9=79|35=0|34=10|49=845672|52=20180811-06:03:00.592|56=Swissquote|142=122.160.79.198|10=046|
8=FIX.4.4|9=60|35=0|34=11|49=Swissquote|52=20180811-06:03:32.673|56=845672|10=141|
8=FIX.4.4|9=79|35=0|34=11|49=845672|52=20180811-06:03:30.606|56=Swissquote|142=122.160.79.198|10=046|
8=FIX.4.4|9=60|35=0|34=12|49=Swissquote|52=20180811-06:04:02.675|56=845672|10=142|
8=FIX.4.4|9=79|35=0|34=12|49=845672|52=20180811-06:04:01.592|56=Swissquote|142=122.160.79.198|10=050|
8=FIX.4.4|9=60|35=0|34=13|49=Swissquote|52=20180811-06:04:32.676|56=845672|10=147|
8=FIX.4.4|9=79|35=0|34=13|49=845672|52=20180811-06:04:31.592|56=Swissquote|142=122.160.79.198|10=054|
8=FIX.4.4|9=60|35=0|34=14|49=Swissquote|52=20180811-06:05:02.677|56=845672|10=147|
8=FIX.4.4|9=79|35=0|34=14|49=845672|52=20180811-06:05:01.593|56=Swissquote|142=122.160.79.198|10=054|
8=FIX.4.4|9=60|35=0|34=15|49=Swissquote|52=20180811-06:05:32.678|56=845672|10=152|
8=FIX.4.4|9=79|35=0|34=15|49=845672|52=20180811-06:05:31.606|56=Swissquote|142=122.160.79.198|10=053|
8=FIX.4.4|9=60|35=0|34=16|49=Swissquote|52=20180811-06:06:02.679|56=845672|10=152|
8=FIX.4.4|9=79|35=0|34=16|49=845672|52=20180811-06:06:02.595|56=Swissquote|142=122.160.79.198|10=060|
8=FIX.4.4|9=60|35=0|34=17|49=Swissquote|52=20180811-06:06:32.681|56=845672|10=149|
8=FIX.4.4|9=79|35=0|34=17|49=845672|52=20180811-06:06:32.595|56=Swissquote|142=122.160.79.198|10=064|
8=FIX.4.4|9=60|35=0|34=18|49=Swissquote|52=20180811-06:07:02.682|56=845672|10=149|
8=FIX.4.4|9=79|35=0|34=18|49=845672|52=20180811-06:07:02.596|56=Swissquote|142=122.160.79.198|10=064|
8=FIX.4.4|9=60|35=0|34=19|49=Swissquote|52=20180811-06:07:32.683|56=845672|10=154|
8=FIX.4.4|9=79|35=0|34=19|49=845672|52=20180811-06:07:32.596|56=Swissquote|142=122.160.79.198|10=068|
8=FIX.4.4|9=60|35=0|34=20|49=Swissquote|52=20180811-06:08:02.684|56=845672|10=145|
8=FIX.4.4|9=79|35=0|34=20|49=845672|52=20180811-06:08:02.597|56=Swissquote|142=122.160.79.198|10=059|
8=FIX.4.4|9=60|35=0|34=21|49=Swissquote|52=20180811-06:08:32.685|56=845672|10=150|
8=FIX.4.4|9=79|35=0|34=21|49=845672|52=20180811-06:08:32.597|56=Swissquote|142=122.160.79.198|10=063|
8=FIX.4.4|9=60|35=0|34=22|49=Swissquote|52=20180811-06:09:02.686|56=845672|10=150|
8=FIX.4.4|9=79|35=0|34=22|49=845672|52=20180811-06:09:02.598|56=Swissquote|142=122.160.79.198|10=063|
8=FIX.4.4|9=60|35=0|34=23|49=Swissquote|52=20180811-06:09:32.688|56=845672|10=156|
8=FIX.4.4|9=79|35=0|34=23|49=845672|52=20180811-06:09:32.599|56=Swissquote|142=122.160.79.198|10=068|
8=FIX.4.4|9=96|35=A|34=1|49=845672|52=20180811-06:13:24.750|56=Swissquote|142=122.160.79.198|98=0|108=30|141=Y|10=087|
8=FIX.4.4|9=96|35=A|34=1|49=845672|52=20180811-06:38:06.851|56=Swissquote|142=122.160.79.198|98=0|108=30|141=Y|10=096|
8=FIX.4.4|9=77|35=A|34=1|49=Swissquote|52=20180811-06:38:09.735|56=845672|98=0|108=30|141=Y|10=198|
