8=FIX.4.2|9=77|35=A|34=1|49=845672|52=20170823-04:30:51.653|56=Swissquote|98=0|108=30|141=Y|10=184|