8=FIX.4.4|9=77|35=A|34=1|49=845672|52=20171221-09:27:45.523|56=Swissquote|98=0|108=30|141=Y|10=189|