8=FIX.4.4|9=96|35=A|34=1|49=845672|52=20171227-05:30:31.368|56=Swissquote|142=122.160.79.198|98=0|108=30|141=Y|10=089|