8=FIX.4.4|9=77|35=A|34=1|49=845673|52=20170823-06:26:50.994|56=Swissquote|98=0|108=30|141=Y|10=201|