8=FIX.4.4|9=96|35=A|34=1|49=845672|52=20180811-06:38:06.851|56=Swissquote|142=122.160.79.198|98=0|108=30|141=Y|10=096|