8=FIX.4.4|9=96|35=A|34=1|49=845672|52=20180827-14:57:09.542|56=Swissquote|142=122.160.79.198|98=0|108=30|141=Y|10=103|8=FIX.4.4|9=78|35=0|34=2|49=845672|52=20180827-14:57:40.509|56=Swissquote|142=122.160.79.198|10=015|8=FIX.4.4|9=78|35=0|34=3|49=845672|52=20180827-14:58:10.524|56=Swissquote|142=122.160.79.198|10=011|8=FIX.4.4|9=78|35=0|34=4|49=845672|52=20180827-14:58:41.537|56=Swissquote|142=122.160.79.198|10=020|8=FIX.4.4|9=78|35=0|34=5|49=845672|52=20180827-14:59:11.537|56=Swissquote|142=122.160.79.198|10=019|8=FIX.4.4|9=78|35=0|34=6|49=845672|52=20180827-14:59:42.534|56=Swissquote|142=122.160.79.198|10=021|8=FIX.4.4|9=78|35=0|34=7|49=845672|52=20180827-15:00:13.531|56=Swissquote|142=122.160.79.198|10=004|8=FIX.4.4|9=78|35=0|34=8|49=845672|52=20180827-15:00:43.531|56=Swissquote|142=122.160.79.198|10=008|8=FIX.4.4|9=78|35=0|34=9|49=845672|52=20180827-15:01:14.528|56=Swissquote|142=122.160.79.198|10=014|8=FIX.4.4|9=79|35=0|34=10|49=845672|52=20180827-15:01:44.528|56=Swissquote|142=122.160.79.198|10=058|8=FIX.4.4|9=79|35=0|34=11|49=845672|52=20180827-15:02:14.543|56=Swissquote|142=122.160.79.198|10=054|8=FIX.4.4|9=79|35=0|34=12|49=845672|52=20180827-15:02:45.543|56=Swissquote|142=122.160.79.198|10=059|8=FIX.4.4|9=79|35=0|34=13|49=845672|52=20180827-15:03:16.540|56=Swissquote|142=122.160.79.198|10=056|8=FIX.4.4|9=79|35=0|34=14|49=845672|52=20180827-15:03:47.537|56=Swissquote|142=122.160.79.198|10=067|8=FIX.4.4|9=79|35=0|34=15|49=845672|52=20180827-15:04:17.537|56=Swissquote|142=122.160.79.198|10=066|8=FIX.4.4|9=79|35=0|34=16|49=845672|52=20180827-15:04:48.535|56=Swissquote|142=122.160.79.198|10=069|8=FIX.4.4|9=79|35=0|34=17|49=845672|52=20180827-15:05:19.547|56=Swissquote|142=122.160.79.198|10=072|8=FIX.4.4|9=79|35=0|34=18|49=845672|52=20180827-15:05:50.545|56=Swissquote|142=122.160.79.198|10=066|8=FIX.4.4|9=79|35=0|34=19|49=845672|52=20180827-15:06:20.545|56=Swissquote|142=122.160.79.198|10=065|8=FIX.4.4|9=79|35=0|34=20|49=845672|52=20180827-15:06:51.542|56=Swissquote|142=122.160.79.198|10=058|8=FIX.4.4|9=79|35=0|34=21|49=845672|52=20180827-15:07:22.539|56=Swissquote|142=122.160.79.198|10=064|8=FIX.4.4|9=79|35=0|34=22|49=845672|52=20180827-15:07:52.539|56=Swissquote|142=122.160.79.198|10=068|8=FIX.4.4|9=79|35=0|34=23|49=845672|52=20180827-15:08:23.552|56=Swissquote|142=122.160.79.198|10=063|8=FIX.4.4|9=79|35=0|34=24|49=845672|52=20180827-15:08:53.552|56=Swissquote|142=122.160.79.198|10=067|8=FIX.4.4|9=79|35=0|34=25|49=845672|52=20180827-15:09:24.549|56=Swissquote|142=122.160.79.198|10=073|8=FIX.4.4|9=79|35=0|34=26|49=845672|52=20180827-15:09:54.549|56=Swissquote|142=122.160.79.198|10=077|8=FIX.4.4|9=79|35=0|34=27|49=845672|52=20180827-15:10:25.546|56=Swissquote|142=122.160.79.198|10=065|8=FIX.4.4|9=79|35=0|34=28|49=845672|52=20180827-15:10:56.543|56=Swissquote|142=122.160.79.198|10=067|